:100000000C9434000C943E000C943E000C943E0082
:100010000C943E000C943E000C943E000C943E0068
:100020000C943E000C943E000C943E000C943E0058
:100030000C943E000C943E000C943E000C943E0048
:100040000C943E000C943E000C943E000C943E0038
:100050000C943E000C943E000C943E000C943E0028
:100060000C943E000C943E0011241FBECFEFD8E04C
:10007000DEBFCDBF0E9440000C9459000C940000DC
:1000800084E084B985B917B818B885E080938100F9
:10009000E4E8F0E0329909C02A98808191818A349D
:1000A0009C44D9F711821082F5CF2A9A11821082CE
:0600B000F1CFF894FFCF30
:00000001FF
