S00D00007461736B312E7372656333
S11300000C9434000C943E000C943E000C943E007E
S11300100C943E000C943E000C943E000C943E0064
S11300200C943E000C943E000C943E000C943E0054
S11300300C943E000C943E000C943E000C943E0044
S11300400C943E000C943E000C943E000C943E0034
S11300500C943E000C943E000C943E000C943E0024
S11300600C943E000C943E0011241FBECFEFD8E048
S1130070DEBFCDBF0E9440000C9464000C940000CD
S113008084B1846284B985B1846285B985E085BD13
S113009094E016BC21E230E086B58938E9F716BC55
S11300A021503109C9F785B1892785B916BC21E2E8
S11300B030E086B58E3CE9F716BC21503109C9F70A
S10F00C085B1892785B9E5CFF894FFCFFE
S9030000FC
