:100000000C9434000C943E000C943E000C943E0082
:100010000C943E000C943E000C943E000C943E0068
:100020000C943E000C943E000C943E000C943E0058
:100030000C943E000C943E000C943E000C943E0048
:100040000C9451000C943E000C943E000C943E0025
:100050000C943E000C943E000C943E000C943E0028
:100060000C943E000C943E0011241FBECFEFD8E04C
:10007000DEBFCDBF0E9440000C9474000C940000C1
:1000800084B1846284B985B1846285B917B818B81F
:1000900085E085BDEEE6F0E0808181608083789424
:1000A000FFCF1F920F920FB60F9211242F933F9301
:1000B0008F9332990FC02A982DE430E086B58D3F9A
:1000C000E9F716BC21503109C9F786B58333E9F742
:1000D00016BC02C02A9A16BC8F913F912F910F90A7
:0C00E0000FBE0F901F901895F894FFCFF2
:00000001FF
