S00E00007461736B33622E73726563CE
S11300000C9434000C943E000C943E000C943E007E
S11300100C943E000C943E000C943E000C943E0064
S11300200C943E000C943E000C943E000C943E0054
S11300300C943E000C943E000C9450000C943E0032
S11300400C943E000C943E000C943E000C943E0034
S11300500C943E000C943E000C943E000C943E0024
S11300600C943E000C943E0011241FBECFEFD8E048
S1130070DEBFCDBF0E9440000C9473000C940000BE
S113008084B1846284B985B1846285B985E085BD13
S113009082E084BD80936E0078948FEF87BDFFCF9C
S11300A01F920F920FB60F9211242F933F938F93A9
S11300B032990FC02A982DE430E086B58D3FE9F7D8
S11300C016BC21503109C9F786B58333E9F716BC4C
S11300D002C02A9A16BC8F913F912F910F900FBEA8
S10D00E00F901F901895F894FFCFBD
S9030000FC
