:100000000C9434000C943E000C943E000C943E0082
:100010000C943E000C943E000C943E000C943E0068
:100020000C943E000C943E000C943E000C943E0058
:100030000C943E000C943E000C943E000C943E0048
:100040000C943E000C943E000C943E000C943E0038
:100050000C943E000C943E000C943E000C943E0028
:100060000C943E000C943E0011241FBECFEFD8E04C
:10007000DEBFCDBF0E9440000C945E000C940000D7
:1000800084B1846284B985B1846285B917B818B81F
:1000900085E085BD32990FC02A982DE430E086B501
:1000A0008D3FE9F716BC21503109C9F786B5833376
:1000B000E9F716BCEFCF2A9A16BCECCFF894FFCF25
:00000001FF
