:100000000C9434000C943E000C943E000C943E0082
:100010000C943E000C943E000C943E000C943E0068
:100020000C943E000C943E000C943E000C943E0058
:100030000C943E000C943E000C9450000C943E0036
:100040000C943E000C943E000C943E000C943E0038
:100050000C943E000C943E000C943E000C943E0028
:100060000C943E000C943E0011241FBECFEFD8E04C
:10007000DEBFCDBF0E9440000C947E000C940000B7
:1000800084B1846284B985B1846285B985E085BD17
:1000900082E084BD80936E0078948FEF87BDFFCFA0
:1000A0001F920F920FB60F9211242F933F938F93AD
:1000B0009F9316BC21E230E086B58938E9F716BC7B
:1000C00021503109C9F795B184E0892785B916BC5B
:1000D00021E230E086B58E3CE9F716BC21503109AB
:1000E000C9F795B184E0892785B99F918F913F9198
:1000F0002F910F900FBE0F901F901895F894FFCF7F
:00000001FF
