S00E00007461736B32612E73726563D0
S11300000C9434000C943E000C943E000C943E007E
S11300100C943E000C943E000C943E000C943E0064
S11300200C943E000C943E000C943E000C943E0054
S11300300C943E000C943E000C943E000C943E0044
S11300400C944F000C943E000C943E000C943E0023
S11300500C943E000C943E000C943E000C943E0024
S11300600C943E000C943E0011241FBECFEFD8E048
S1130070DEBFCDBF0E9440000C947D000C940000B4
S113008084B1846284B985B1846285B9EEE6F0E016
S1130090808181608083789485E085BDFFCF1F9245
S11300A00F920FB60F9211242F933F938F939F9328
S11300B016BC21E230E086B58938E9F716BC215038
S11300C03109C9F795B184E0892785B916BC21E2C5
S11300D030E086B58E3CE9F716BC21503109C9F7EA
S11300E095B184E0892785B99F918F913F912F9194
S11100F00F900FBE0F901F901895F894FFCF3D
S9030000FC
